{
  "contractName": "CustomerRole",
  "abi": [
    {
      "inputs": [],
      "stateMutability": "nonpayable",
      "type": "constructor"
    },
    {
      "anonymous": false,
      "inputs": [
        {
          "indexed": true,
          "internalType": "address",
          "name": "account",
          "type": "address"
        }
      ],
      "name": "CustomerAdded",
      "type": "event"
    },
    {
      "anonymous": false,
      "inputs": [
        {
          "indexed": true,
          "internalType": "address",
          "name": "account",
          "type": "address"
        }
      ],
      "name": "CustomerRemoved",
      "type": "event"
    },
    {
      "inputs": [
        {
          "internalType": "address",
          "name": "account",
          "type": "address"
        }
      ],
      "name": "isCustomer",
      "outputs": [
        {
          "internalType": "bool",
          "name": "",
          "type": "bool"
        }
      ],
      "stateMutability": "view",
      "type": "function"
    },
    {
      "inputs": [
        {
          "internalType": "address",
          "name": "account",
          "type": "address"
        }
      ],
      "name": "addCustomer",
      "outputs": [],
      "stateMutability": "nonpayable",
      "type": "function"
    },
    {
      "inputs": [],
      "name": "renounceCustomer",
      "outputs": [],
      "stateMutability": "nonpayable",
      "type": "function"
    }
  ],
  "bytecode": "0x608060405234801561001057600080fd5b506100203361002560201b60201c565b6101c7565b61003d81600061008360201b6100e21790919060201c565b8073ffffffffffffffffffffffffffffffffffffffff167fcd118a02bd36f224f6f1b93812f78d2bbc2c2dc1bc0f60c176e3b4fe09f1483f60405160405180910390a250565b600073ffffffffffffffffffffffffffffffffffffffff168173ffffffffffffffffffffffffffffffffffffffff1614156100bd57600080fd5b6100cd828261013560201b60201c565b156100d757600080fd5b60018260000160008373ffffffffffffffffffffffffffffffffffffffff1673ffffffffffffffffffffffffffffffffffffffff16815260200190815260200160002060006101000a81548160ff0219169083151502179055505050565b60008073ffffffffffffffffffffffffffffffffffffffff168273ffffffffffffffffffffffffffffffffffffffff16141561017057600080fd5b8260000160008373ffffffffffffffffffffffffffffffffffffffff1673ffffffffffffffffffffffffffffffffffffffff16815260200190815260200160002060009054906101000a900460ff16905092915050565b610472806101d66000396000f3fe608060405234801561001057600080fd5b50600436106100415760003560e01c806328fd5e8314610046578063ac98e6db14610076578063ad973d7414610080575b600080fd5b610060600480360381019061005b9190610394565b61009c565b60405161006d91906103cc565b60405180910390f35b61007e6100b9565b005b61009a60048036038101906100959190610394565b6100c4565b005b60006100b282600061018e90919063ffffffff16565b9050919050565b6100c233610220565b565b6100cd3361009c565b6100d657600080fd5b6100df8161027a565b50565b600073ffffffffffffffffffffffffffffffffffffffff168173ffffffffffffffffffffffffffffffffffffffff16141561011c57600080fd5b610126828261018e565b1561013057600080fd5b60018260000160008373ffffffffffffffffffffffffffffffffffffffff1673ffffffffffffffffffffffffffffffffffffffff16815260200190815260200160002060006101000a81548160ff0219169083151502179055505050565b60008073ffffffffffffffffffffffffffffffffffffffff168273ffffffffffffffffffffffffffffffffffffffff1614156101c957600080fd5b8260000160008373ffffffffffffffffffffffffffffffffffffffff1673ffffffffffffffffffffffffffffffffffffffff16815260200190815260200160002060009054906101000a900460ff16905092915050565b6102348160006102d490919063ffffffff16565b8073ffffffffffffffffffffffffffffffffffffffff167fb4c88a9c5cd906354abdd1cc29e4f94c6c4de90754fb80ce51e6a33417bc81b660405160405180910390a250565b61028e8160006100e290919063ffffffff16565b8073ffffffffffffffffffffffffffffffffffffffff167fcd118a02bd36f224f6f1b93812f78d2bbc2c2dc1bc0f60c176e3b4fe09f1483f60405160405180910390a250565b600073ffffffffffffffffffffffffffffffffffffffff168173ffffffffffffffffffffffffffffffffffffffff16141561030e57600080fd5b610318828261018e565b61032157600080fd5b60008260000160008373ffffffffffffffffffffffffffffffffffffffff1673ffffffffffffffffffffffffffffffffffffffff16815260200190815260200160002060006101000a81548160ff0219169083151502179055505050565b60008135905061038e81610425565b92915050565b6000602082840312156103a657600080fd5b60006103b48482850161037f565b91505092915050565b6103c6816103f9565b82525050565b60006020820190506103e160008301846103bd565b92915050565b60006103f282610405565b9050919050565b60008115159050919050565b600073ffffffffffffffffffffffffffffffffffffffff82169050919050565b61042e816103e7565b811461043957600080fd5b5056fea264697066735822122098218a529c07ce1496a03a4cd7be3237c6bae3c9fb632e98b4816a83d4870d8964736f6c63430008000033",
  "immutableReferences": {},
  "source": "pragma solidity >=0.4.24;\r\n\r\n// Import the library 'Roles'\r\nimport \"./Roles.sol\";\r\n\r\n// Define a contract 'CustomerRole' to manage this role - add, remove, check\r\ncontract CustomerRole {\r\n  using Roles for Roles.Role;\r\n  \r\n  // Define 2 events, one for Adding, and other for Removing\r\n  event CustomerAdded(address indexed account);\r\n  event CustomerRemoved(address indexed account);\r\n\r\n  // Define a struct 'customers' by inheriting from 'Roles' library, struct Role\r\n  Roles.Role private customers;\r\n\r\n  // In the constructor make the address that deploys this contract the 1st customer\r\n  constructor() public {\r\n    _addCustomer(msg.sender);\r\n  }\r\n\r\n  // Define a modifier that checks to see if msg.sender has the appropriate role\r\n  modifier onlyCustomer() {\r\n    require(isCustomer(msg.sender));\r\n    _;\r\n  }\r\n\r\n  // Define a function 'isCustomer' to check this role\r\n  function isCustomer(address account) public view returns (bool) {\r\n    return customers.has(account);\r\n  }\r\n\r\n  // Define a function 'addCustomer' that adds this role\r\n  function addCustomer(address account) public onlyCustomer {\r\n    _addCustomer(account);\r\n  }\r\n\r\n  // Define a function 'renounceCustomer' to renounce this role\r\n  function renounceCustomer() public {\r\n    _removeCustomer(msg.sender);\r\n  }\r\n\r\n  // Define an internal function '_addCustomer' to add this role, called by 'addCustomer'\r\n  function _addCustomer(address account) internal {\r\n    customers.add(account);\r\n    emit CustomerAdded(account);\r\n  }\r\n\r\n  // Define an internal function '_removeCustomer' to remove this role, called by 'removeCustomer'\r\n  function _removeCustomer(address account) internal {\r\n    customers.remove(account);\r\n    emit CustomerRemoved(account);\r\n  }\r\n}",
  "sourcePath": "E:\\Blockchain\\Supply Chain\\SupplyChainProject\\contracts\\talaveracontrol\\CustomerRole.sol",
  "compiler": {
    "name": "solc",
    "version": "0.8.0+commit.c7dfd78e.Emscripten.clang"
  },
  "schemaVersion": "3.4.5",
  "updatedAt": "2022-05-16T07:51:32.030Z",
  "devdoc": {
    "kind": "dev",
    "methods": {},
    "version": 1
  },
  "userdoc": {
    "kind": "user",
    "methods": {},
    "version": 1
  }
}