{
  "contractName": "SupplyChain",
  "abi": [
    {
      "inputs": [],
      "stateMutability": "payable",
      "type": "constructor"
    },
    {
      "anonymous": false,
      "inputs": [
        {
          "indexed": false,
          "internalType": "uint256",
          "name": "upc",
          "type": "uint256"
        }
      ],
      "name": "Created",
      "type": "event"
    },
    {
      "anonymous": false,
      "inputs": [
        {
          "indexed": true,
          "internalType": "address",
          "name": "account",
          "type": "address"
        }
      ],
      "name": "CustomerAdded",
      "type": "event"
    },
    {
      "anonymous": false,
      "inputs": [
        {
          "indexed": true,
          "internalType": "address",
          "name": "account",
          "type": "address"
        }
      ],
      "name": "CustomerRemoved",
      "type": "event"
    },
    {
      "anonymous": false,
      "inputs": [
        {
          "indexed": false,
          "internalType": "uint256",
          "name": "upc",
          "type": "uint256"
        }
      ],
      "name": "ForSale",
      "type": "event"
    },
    {
      "anonymous": false,
      "inputs": [
        {
          "indexed": false,
          "internalType": "uint256",
          "name": "upc",
          "type": "uint256"
        }
      ],
      "name": "Received",
      "type": "event"
    },
    {
      "anonymous": false,
      "inputs": [
        {
          "indexed": true,
          "internalType": "address",
          "name": "account",
          "type": "address"
        }
      ],
      "name": "RetailerAdded",
      "type": "event"
    },
    {
      "anonymous": false,
      "inputs": [
        {
          "indexed": true,
          "internalType": "address",
          "name": "account",
          "type": "address"
        }
      ],
      "name": "RetailerRemoved",
      "type": "event"
    },
    {
      "anonymous": false,
      "inputs": [
        {
          "indexed": false,
          "internalType": "uint256",
          "name": "upc",
          "type": "uint256"
        }
      ],
      "name": "Shipped",
      "type": "event"
    },
    {
      "anonymous": false,
      "inputs": [
        {
          "indexed": false,
          "internalType": "uint256",
          "name": "upc",
          "type": "uint256"
        }
      ],
      "name": "Sold",
      "type": "event"
    },
    {
      "anonymous": false,
      "inputs": [
        {
          "indexed": false,
          "internalType": "uint256",
          "name": "upc",
          "type": "uint256"
        }
      ],
      "name": "Stored",
      "type": "event"
    },
    {
      "anonymous": false,
      "inputs": [
        {
          "indexed": true,
          "internalType": "address",
          "name": "oldOwner",
          "type": "address"
        },
        {
          "indexed": true,
          "internalType": "address",
          "name": "newOwner",
          "type": "address"
        }
      ],
      "name": "TransferOwnership",
      "type": "event"
    },
    {
      "anonymous": false,
      "inputs": [
        {
          "indexed": true,
          "internalType": "address",
          "name": "account",
          "type": "address"
        }
      ],
      "name": "WorkshopAdded",
      "type": "event"
    },
    {
      "anonymous": false,
      "inputs": [
        {
          "indexed": true,
          "internalType": "address",
          "name": "account",
          "type": "address"
        }
      ],
      "name": "WorkshopRemoved",
      "type": "event"
    },
    {
      "inputs": [
        {
          "internalType": "address",
          "name": "account",
          "type": "address"
        }
      ],
      "name": "addCustomer",
      "outputs": [],
      "stateMutability": "nonpayable",
      "type": "function"
    },
    {
      "inputs": [
        {
          "internalType": "address",
          "name": "account",
          "type": "address"
        }
      ],
      "name": "addRetailer",
      "outputs": [],
      "stateMutability": "nonpayable",
      "type": "function"
    },
    {
      "inputs": [
        {
          "internalType": "address",
          "name": "account",
          "type": "address"
        }
      ],
      "name": "addWorkshop",
      "outputs": [],
      "stateMutability": "nonpayable",
      "type": "function"
    },
    {
      "inputs": [
        {
          "internalType": "address",
          "name": "account",
          "type": "address"
        }
      ],
      "name": "isCustomer",
      "outputs": [
        {
          "internalType": "bool",
          "name": "",
          "type": "bool"
        }
      ],
      "stateMutability": "view",
      "type": "function"
    },
    {
      "inputs": [],
      "name": "isOwner",
      "outputs": [
        {
          "internalType": "bool",
          "name": "",
          "type": "bool"
        }
      ],
      "stateMutability": "view",
      "type": "function"
    },
    {
      "inputs": [
        {
          "internalType": "address",
          "name": "account",
          "type": "address"
        }
      ],
      "name": "isRetailer",
      "outputs": [
        {
          "internalType": "bool",
          "name": "",
          "type": "bool"
        }
      ],
      "stateMutability": "view",
      "type": "function"
    },
    {
      "inputs": [
        {
          "internalType": "address",
          "name": "account",
          "type": "address"
        }
      ],
      "name": "isWorkshop",
      "outputs": [
        {
          "internalType": "bool",
          "name": "",
          "type": "bool"
        }
      ],
      "stateMutability": "view",
      "type": "function"
    },
    {
      "inputs": [],
      "name": "owner",
      "outputs": [
        {
          "internalType": "address",
          "name": "",
          "type": "address"
        }
      ],
      "stateMutability": "view",
      "type": "function"
    },
    {
      "inputs": [],
      "name": "renounceCustomer",
      "outputs": [],
      "stateMutability": "nonpayable",
      "type": "function"
    },
    {
      "inputs": [],
      "name": "renounceOwnership",
      "outputs": [],
      "stateMutability": "nonpayable",
      "type": "function"
    },
    {
      "inputs": [],
      "name": "renounceRetailer",
      "outputs": [],
      "stateMutability": "nonpayable",
      "type": "function"
    },
    {
      "inputs": [],
      "name": "renounceWorkshop",
      "outputs": [],
      "stateMutability": "nonpayable",
      "type": "function"
    },
    {
      "inputs": [
        {
          "internalType": "address",
          "name": "newOwner",
          "type": "address"
        }
      ],
      "name": "transferOwnership",
      "outputs": [],
      "stateMutability": "nonpayable",
      "type": "function"
    },
    {
      "inputs": [],
      "name": "kill",
      "outputs": [],
      "stateMutability": "nonpayable",
      "type": "function"
    },
    {
      "inputs": [
        {
          "internalType": "uint256",
          "name": "_upc",
          "type": "uint256"
        },
        {
          "internalType": "address",
          "name": "_originWorkshopID",
          "type": "address"
        },
        {
          "internalType": "string",
          "name": "_originWorkshopName",
          "type": "string"
        },
        {
          "internalType": "string",
          "name": "_productNotes",
          "type": "string"
        }
      ],
      "name": "createItem",
      "outputs": [],
      "stateMutability": "nonpayable",
      "type": "function"
    },
    {
      "inputs": [
        {
          "internalType": "uint256",
          "name": "_upc",
          "type": "uint256"
        }
      ],
      "name": "storeItem",
      "outputs": [],
      "stateMutability": "nonpayable",
      "type": "function"
    },
    {
      "inputs": [
        {
          "internalType": "uint256",
          "name": "_upc",
          "type": "uint256"
        }
      ],
      "name": "shipItem",
      "outputs": [],
      "stateMutability": "nonpayable",
      "type": "function"
    },
    {
      "inputs": [
        {
          "internalType": "uint256",
          "name": "_upc",
          "type": "uint256"
        }
      ],
      "name": "receiveItem",
      "outputs": [],
      "stateMutability": "nonpayable",
      "type": "function"
    },
    {
      "inputs": [
        {
          "internalType": "uint256",
          "name": "_upc",
          "type": "uint256"
        },
        {
          "internalType": "uint256",
          "name": "_price",
          "type": "uint256"
        }
      ],
      "name": "sellItem",
      "outputs": [],
      "stateMutability": "nonpayable",
      "type": "function"
    },
    {
      "inputs": [
        {
          "internalType": "uint256",
          "name": "_upc",
          "type": "uint256"
        }
      ],
      "name": "buyItem",
      "outputs": [],
      "stateMutability": "payable",
      "type": "function"
    },
    {
      "inputs": [
        {
          "internalType": "uint256",
          "name": "_upc",
          "type": "uint256"
        }
      ],
      "name": "fetchItemBufferOne",
      "outputs": [
        {
          "internalType": "uint256",
          "name": "itemSKU",
          "type": "uint256"
        },
        {
          "internalType": "uint256",
          "name": "itemUPC",
          "type": "uint256"
        },
        {
          "internalType": "address",
          "name": "ownerID",
          "type": "address"
        },
        {
          "internalType": "address payable",
          "name": "originWorkshopID",
          "type": "address"
        },
        {
          "internalType": "string",
          "name": "originWorkshopName",
          "type": "string"
        }
      ],
      "stateMutability": "view",
      "type": "function"
    },
    {
      "inputs": [
        {
          "internalType": "uint256",
          "name": "_upc",
          "type": "uint256"
        }
      ],
      "name": "fetchItemBufferTwo",
      "outputs": [
        {
          "internalType": "uint256",
          "name": "itemSKU",
          "type": "uint256"
        },
        {
          "internalType": "uint256",
          "name": "itemUPC",
          "type": "uint256"
        },
        {
          "internalType": "uint256",
          "name": "productID",
          "type": "uint256"
        },
        {
          "internalType": "string",
          "name": "productNotes",
          "type": "string"
        },
        {
          "internalType": "uint256",
          "name": "productPrice",
          "type": "uint256"
        },
        {
          "internalType": "enum SupplyChain.State",
          "name": "itemState",
          "type": "uint8"
        },
        {
          "internalType": "address",
          "name": "retailerID",
          "type": "address"
        },
        {
          "internalType": "address",
          "name": "customerID",
          "type": "address"
        }
      ],
      "stateMutability": "view",
      "type": "function"
    }
  ],
  "bytecode": "0x608060405262000015336200014c60201b60201c565b6200002633620001ad60201b60201c565b62000037336200020e60201b60201c565b33600360006101000a81548173ffffffffffffffffffffffffffffffffffffffff021916908373ffffffffffffffffffffffffffffffffffffffff160217905550600360009054906101000a900473ffffffffffffffffffffffffffffffffffffffff1673ffffffffffffffffffffffffffffffffffffffff16600073ffffffffffffffffffffffffffffffffffffffff167f5c486528ec3e3f0ea91181cff8116f02bfa350e03b8b6f12e00765adbb5af85c60405160405180910390a333600460006101000a81548173ffffffffffffffffffffffffffffffffffffffff021916908373ffffffffffffffffffffffffffffffffffffffff16021790555060016006819055506001600581905550620003b8565b620001678160006200026f60201b62001a331790919060201c565b8073ffffffffffffffffffffffffffffffffffffffff167fedc03018a1a8d62183da42aeb3e5762205741e372f7c95d60259348e28e2109d60405160405180910390a250565b620001c88160016200026f60201b62001a331790919060201c565b8073ffffffffffffffffffffffffffffffffffffffff167f71ae26cad02663e3d92efd6ec56031a80d74a20c0ab4183faa8bf262261c9baa60405160405180910390a250565b620002298160026200026f60201b62001a331790919060201c565b8073ffffffffffffffffffffffffffffffffffffffff167fcd118a02bd36f224f6f1b93812f78d2bbc2c2dc1bc0f60c176e3b4fe09f1483f60405160405180910390a250565b600073ffffffffffffffffffffffffffffffffffffffff168173ffffffffffffffffffffffffffffffffffffffff161415620002aa57600080fd5b620002bc82826200032560201b60201c565b15620002c757600080fd5b60018260000160008373ffffffffffffffffffffffffffffffffffffffff1673ffffffffffffffffffffffffffffffffffffffff16815260200190815260200160002060006101000a81548160ff0219169083151502179055505050565b60008073ffffffffffffffffffffffffffffffffffffffff168273ffffffffffffffffffffffffffffffffffffffff1614156200036157600080fd5b8260000160008373ffffffffffffffffffffffffffffffffffffffff1673ffffffffffffffffffffffffffffffffffffffff16815260200190815260200160002060009054906101000a900460ff16905092915050565b612a1380620003c86000396000f3fe6080604052600436106101355760003560e01c80638ec4f505116100ab578063ad973d741161006f578063ad973d74146103f5578063db0e6a2f1461041e578063e7fb74c714610435578063f2fde38b14610451578063f61c899a1461047a578063fdd39af7146104a357610135565b80638ec4f505146103385780638f32d59b14610361578063a228ea381461038c578063a26be999146103b5578063ac98e6db146103de57610135565b80636529ea85116100fd5780636529ea851461023157806366225ff914610248578063715018a61461028c57806377c45913146102a35780638b37988e146102e45780638da5cb5b1461030d57610135565b80631e2ebe831461013a57806328fd5e83146101775780632d923561146101b457806341c0e1b5146101dd5780635da09b88146101f4575b600080fd5b34801561014657600080fd5b50610161600480360381019061015c9190612067565b6104cc565b60405161016e91906124bf565b60405180910390f35b34801561018357600080fd5b5061019e60048036038101906101999190612067565b6104e9565b6040516101ab91906124bf565b60405180910390f35b3480156101c057600080fd5b506101db60048036038101906101d6919061214c565b610506565b005b3480156101e957600080fd5b506101f2610787565b005b34801561020057600080fd5b5061021b60048036038101906102169190612067565b61081a565b60405161022891906124bf565b60405180910390f35b34801561023d57600080fd5b50610246610837565b005b34801561025457600080fd5b5061026f600480360381019061026a9190612090565b610842565b60405161028398979695949392919061264f565b60405180910390f35b34801561029857600080fd5b506102a16109f7565b005b3480156102af57600080fd5b506102ca60048036038101906102c59190612090565b610ac9565b6040516102db9594939291906125f5565b60405180910390f35b3480156102f057600080fd5b5061030b60048036038101906103069190612090565b610c1f565b005b34801561031957600080fd5b50610322610e84565b60405161032f91906124a4565b60405180910390f35b34801561034457600080fd5b5061035f600480360381019061035a9190612067565b610eae565b005b34801561036d57600080fd5b50610376610f02565b60405161038391906124bf565b60405180910390f35b34801561039857600080fd5b506103b360048036038101906103ae9190612067565b610f5a565b005b3480156103c157600080fd5b506103dc60048036038101906103d79190612090565b610fae565b005b3480156103ea57600080fd5b506103f3611217565b005b34801561040157600080fd5b5061041c60048036038101906104179190612067565b611222565b005b34801561042a57600080fd5b50610433611240565b005b61044f600480360381019061044a9190612090565b61124b565b005b34801561045d57600080fd5b5061047860048036038101906104739190612067565b6115ca565b005b34801561048657600080fd5b506104a1600480360381019061049c9190612090565b6115e7565b005b3480156104af57600080fd5b506104ca60048036038101906104c591906120b9565b61184c565b005b60006104e2826000611adf90919063ffffffff16565b9050919050565b60006104ff826002611adf90919063ffffffff16565b9050919050565b8160036005811115610541577f4e487b7100000000000000000000000000000000000000000000000000000000600052602160045260246000fd5b6007600083815260200190815260200160002060080160009054906101000a900460ff16600581111561059d577f4e487b7100000000000000000000000000000000000000000000000000000000600052602160045260246000fd5b146105dd576040517f08c379a00000000000000000000000000000000000000000000000000000000081526004016105d49061253a565b60405180910390fd5b6007600084815260200190815260200160002060020160009054906101000a900473ffffffffffffffffffffffffffffffffffffffff168073ffffffffffffffffffffffffffffffffffffffff163373ffffffffffffffffffffffffffffffffffffffff1614610682576040517f08c379a0000000000000000000000000000000000000000000000000000000008152600401610679906124da565b60405180910390fd5b61068b3361081a565b6106ca576040517f08c379a00000000000000000000000000000000000000000000000000000000081526004016106c1906125ba565b60405180910390fd5b60046007600086815260200190815260200160002060080160006101000a81548160ff0219169083600581111561072a577f4e487b7100000000000000000000000000000000000000000000000000000000600052602160045260246000fd5b02179055508260076000868152602001908152602001600020600701819055507fa96ae0fc3224ebd79eebfe54bd130cc9cb94416cddd1f2386115e00b725324688460405161077991906125da565b60405180910390a150505050565b600460009054906101000a900473ffffffffffffffffffffffffffffffffffffffff1673ffffffffffffffffffffffffffffffffffffffff163373ffffffffffffffffffffffffffffffffffffffff16141561081857600460009054906101000a900473ffffffffffffffffffffffffffffffffffffffff1673ffffffffffffffffffffffffffffffffffffffff16ff5b565b6000610830826001611adf90919063ffffffff16565b9050919050565b61084033611b71565b565b60008060006060600080600080600760008a8152602001908152602001600020600001549750600760008a8152602001908152602001600020600101549650600760008a8152602001908152602001600020600501549550600760008a815260200190815260200160002060060180546108bb9061289c565b80601f01602080910402602001604051908101604052809291908181526020018280546108e79061289c565b80156109345780601f1061090957610100808354040283529160200191610934565b820191906000526020600020905b81548152906001019060200180831161091757829003601f168201915b50505050509450600760008a8152602001908152602001600020600701549350600760008a815260200190815260200160002060080160009054906101000a900460ff169250600760008a815260200190815260200160002060080160019054906101000a900473ffffffffffffffffffffffffffffffffffffffff169150600760008a815260200190815260200160002060090160009054906101000a900473ffffffffffffffffffffffffffffffffffffffff169050919395975091939597565b6109ff610f02565b610a0857600080fd5b600073ffffffffffffffffffffffffffffffffffffffff16600360009054906101000a900473ffffffffffffffffffffffffffffffffffffffff1673ffffffffffffffffffffffffffffffffffffffff167f5c486528ec3e3f0ea91181cff8116f02bfa350e03b8b6f12e00765adbb5af85c60405160405180910390a36000600360006101000a81548173ffffffffffffffffffffffffffffffffffffffff021916908373ffffffffffffffffffffffffffffffffffffffff160217905550565b600080600080606060076000878152602001908152602001600020600001549450600760008781526020019081526020016000206001015493506007600087815260200190815260200160002060020160009054906101000a900473ffffffffffffffffffffffffffffffffffffffff1692506007600087815260200190815260200160002060030160009054906101000a900473ffffffffffffffffffffffffffffffffffffffff169150600760008781526020019081526020016000206004018054610b969061289c565b80601f0160208091040260200160405190810160405280929190818152602001828054610bc29061289c565b8015610c0f5780601f10610be457610100808354040283529160200191610c0f565b820191906000526020600020905b815481529060010190602001808311610bf257829003601f168201915b5050505050905091939590929450565b8060006005811115610c5a577f4e487b7100000000000000000000000000000000000000000000000000000000600052602160045260246000fd5b6007600083815260200190815260200160002060080160009054906101000a900460ff166005811115610cb6577f4e487b7100000000000000000000000000000000000000000000000000000000600052602160045260246000fd5b14610cf6576040517f08c379a0000000000000000000000000000000000000000000000000000000008152600401610ced9061259a565b60405180910390fd5b6007600083815260200190815260200160002060020160009054906101000a900473ffffffffffffffffffffffffffffffffffffffff168073ffffffffffffffffffffffffffffffffffffffff163373ffffffffffffffffffffffffffffffffffffffff1614610d9b576040517f08c379a0000000000000000000000000000000000000000000000000000000008152600401610d92906124da565b60405180910390fd5b610da4336104cc565b610de3576040517f08c379a0000000000000000000000000000000000000000000000000000000008152600401610dda9061255a565b60405180910390fd5b60016007600085815260200190815260200160002060080160006101000a81548160ff02191690836005811115610e43577f4e487b7100000000000000000000000000000000000000000000000000000000600052602160045260246000fd5b02179055507fc6d8c0af6d21f291e7c359603aa97e0ed500f04db6e983b9fce75a91c6b8da6b83604051610e7791906125da565b60405180910390a1505050565b6000600360009054906101000a900473ffffffffffffffffffffffffffffffffffffffff16905090565b610eb73361081a565b610ef6576040517f08c379a0000000000000000000000000000000000000000000000000000000008152600401610eed906125ba565b60405180910390fd5b610eff81611bcb565b50565b6000600360009054906101000a900473ffffffffffffffffffffffffffffffffffffffff1673ffffffffffffffffffffffffffffffffffffffff163373ffffffffffffffffffffffffffffffffffffffff1614905090565b610f63336104cc565b610fa2576040517f08c379a0000000000000000000000000000000000000000000000000000000008152600401610f999061255a565b60405180910390fd5b610fab81611c25565b50565b8060026005811115610fe9577f4e487b7100000000000000000000000000000000000000000000000000000000600052602160045260246000fd5b6007600083815260200190815260200160002060080160009054906101000a900460ff166005811115611045577f4e487b7100000000000000000000000000000000000000000000000000000000600052602160045260246000fd5b14611085576040517f08c379a000000000000000000000000000000000000000000000000000000000815260040161107c9061251a565b60405180910390fd5b61108e3361081a565b6110cd576040517f08c379a00000000000000000000000000000000000000000000000000000000081526004016110c4906125ba565b60405180910390fd5b60036007600084815260200190815260200160002060080160006101000a81548160ff0219169083600581111561112d577f4e487b7100000000000000000000000000000000000000000000000000000000600052602160045260246000fd5b0217905550336007600084815260200190815260200160002060020160006101000a81548173ffffffffffffffffffffffffffffffffffffffff021916908373ffffffffffffffffffffffffffffffffffffffff160217905550336007600084815260200190815260200160002060080160016101000a81548173ffffffffffffffffffffffffffffffffffffffff021916908373ffffffffffffffffffffffffffffffffffffffff1602179055507fa8142743f8f70a4c26f3691cf4ed59718381fb2f18070ec52be1f1022d8555578260405161120b91906125da565b60405180910390a15050565b61122033611c7f565b565b61122b336104e9565b61123457600080fd5b61123d81611cd9565b50565b61124933611d33565b565b8060046005811115611286577f4e487b7100000000000000000000000000000000000000000000000000000000600052602160045260246000fd5b6007600083815260200190815260200160002060080160009054906101000a900460ff1660058111156112e2577f4e487b7100000000000000000000000000000000000000000000000000000000600052602160045260246000fd5b14611322576040517f08c379a0000000000000000000000000000000000000000000000000000000008152600401611319906124fa565b60405180910390fd5b348034101561133057600080fd5b611339336104e9565b61134257600080fd5b336007600085815260200190815260200160002060020160006101000a81548173ffffffffffffffffffffffffffffffffffffffff021916908373ffffffffffffffffffffffffffffffffffffffff16021790555060056007600085815260200190815260200160002060080160006101000a81548160ff021916908360058111156113f7577f4e487b7100000000000000000000000000000000000000000000000000000000600052602160045260246000fd5b0217905550336007600085815260200190815260200160002060090160006101000a81548173ffffffffffffffffffffffffffffffffffffffff021916908373ffffffffffffffffffffffffffffffffffffffff1602179055506007600084815260200190815260200160002060030160009054906101000a900473ffffffffffffffffffffffffffffffffffffffff1673ffffffffffffffffffffffffffffffffffffffff166108fc60076000868152602001908152602001600020600701549081150290604051600060405180830381858888f193505050501580156114e3573d6000803e3d6000fd5b506000600760008581526020019081526020016000206007015490506000813461150d91906127a7565b90506007600086815260200190815260200160002060090160009054906101000a900473ffffffffffffffffffffffffffffffffffffffff1673ffffffffffffffffffffffffffffffffffffffff166108fc829081150290604051600060405180830381858888f1935050505015801561158b573d6000803e3d6000fd5b507f92f64ca637d023f354075a4be751b169c1a8a9ccb6d33cdd0cb3520543995727856040516115bb91906125da565b60405180910390a15050505050565b6115d2610f02565b6115db57600080fd5b6115e481611d8d565b50565b8060016005811115611622577f4e487b7100000000000000000000000000000000000000000000000000000000600052602160045260246000fd5b6007600083815260200190815260200160002060080160009054906101000a900460ff16600581111561167e577f4e487b7100000000000000000000000000000000000000000000000000000000600052602160045260246000fd5b146116be576040517f08c379a00000000000000000000000000000000000000000000000000000000081526004016116b59061257a565b60405180910390fd5b6007600083815260200190815260200160002060020160009054906101000a900473ffffffffffffffffffffffffffffffffffffffff168073ffffffffffffffffffffffffffffffffffffffff163373ffffffffffffffffffffffffffffffffffffffff1614611763576040517f08c379a000000000000000000000000000000000000000000000000000000000815260040161175a906124da565b60405180910390fd5b61176c336104cc565b6117ab576040517f08c379a00000000000000000000000000000000000000000000000000000000081526004016117a29061255a565b60405180910390fd5b60026007600085815260200190815260200160002060080160006101000a81548160ff0219169083600581111561180b577f4e487b7100000000000000000000000000000000000000000000000000000000600052602160045260246000fd5b02179055507ff00b9a5725b80c54016f42114f6ed7792d22eecb116011c4afac29c57bef6c958360405161183f91906125da565b60405180910390a1505050565b611855336104cc565b611894576040517f08c379a000000000000000000000000000000000000000000000000000000000815260040161188b9061255a565b60405180910390fd5b60006007600086815260200190815260200160002090506006548160000181905550848160010181905550838160020160006101000a81548173ffffffffffffffffffffffffffffffffffffffff021916908373ffffffffffffffffffffffffffffffffffffffff160217905550838160030160006101000a81548173ffffffffffffffffffffffffffffffffffffffff021916908373ffffffffffffffffffffffffffffffffffffffff1602179055508281600401908051906020019061195d929190611f32565b508460065461196c9190612751565b81600501819055508181600601908051906020019061198c929190611f32565b5060008160080160006101000a81548160ff021916908360058111156119db577f4e487b7100000000000000000000000000000000000000000000000000000000600052602160045260246000fd5b021790555060016006546119ef9190612751565b6006819055507f06acbfb32bcf8383f3b0a768b70ac9ec234ea0f2d3b9c77fa6a2de69b919aad185604051611a2491906125da565b60405180910390a15050505050565b600073ffffffffffffffffffffffffffffffffffffffff168173ffffffffffffffffffffffffffffffffffffffff161415611a6d57600080fd5b611a778282611adf565b15611a8157600080fd5b60018260000160008373ffffffffffffffffffffffffffffffffffffffff1673ffffffffffffffffffffffffffffffffffffffff16815260200190815260200160002060006101000a81548160ff0219169083151502179055505050565b60008073ffffffffffffffffffffffffffffffffffffffff168273ffffffffffffffffffffffffffffffffffffffff161415611b1a57600080fd5b8260000160008373ffffffffffffffffffffffffffffffffffffffff1673ffffffffffffffffffffffffffffffffffffffff16815260200190815260200160002060009054906101000a900460ff16905092915050565b611b85816000611e8790919063ffffffff16565b8073ffffffffffffffffffffffffffffffffffffffff167f7b730fd5e1824b7084e3e0b56f4b60c07d3862f6198954123d1363163c1da1dd60405160405180910390a250565b611bdf816001611a3390919063ffffffff16565b8073ffffffffffffffffffffffffffffffffffffffff167f71ae26cad02663e3d92efd6ec56031a80d74a20c0ab4183faa8bf262261c9baa60405160405180910390a250565b611c39816000611a3390919063ffffffff16565b8073ffffffffffffffffffffffffffffffffffffffff167fedc03018a1a8d62183da42aeb3e5762205741e372f7c95d60259348e28e2109d60405160405180910390a250565b611c93816002611e8790919063ffffffff16565b8073ffffffffffffffffffffffffffffffffffffffff167fb4c88a9c5cd906354abdd1cc29e4f94c6c4de90754fb80ce51e6a33417bc81b660405160405180910390a250565b611ced816002611a3390919063ffffffff16565b8073ffffffffffffffffffffffffffffffffffffffff167fcd118a02bd36f224f6f1b93812f78d2bbc2c2dc1bc0f60c176e3b4fe09f1483f60405160405180910390a250565b611d47816001611e8790919063ffffffff16565b8073ffffffffffffffffffffffffffffffffffffffff167fdb7176e79cffef81cb01767dd0447a0b24bb72ca9778d4b245581086b2a7e6db60405160405180910390a250565b600073ffffffffffffffffffffffffffffffffffffffff168173ffffffffffffffffffffffffffffffffffffffff161415611dc757600080fd5b8073ffffffffffffffffffffffffffffffffffffffff16600360009054906101000a900473ffffffffffffffffffffffffffffffffffffffff1673ffffffffffffffffffffffffffffffffffffffff167f5c486528ec3e3f0ea91181cff8116f02bfa350e03b8b6f12e00765adbb5af85c60405160405180910390a380600360006101000a81548173ffffffffffffffffffffffffffffffffffffffff021916908373ffffffffffffffffffffffffffffffffffffffff16021790555050565b600073ffffffffffffffffffffffffffffffffffffffff168173ffffffffffffffffffffffffffffffffffffffff161415611ec157600080fd5b611ecb8282611adf565b611ed457600080fd5b60008260000160008373ffffffffffffffffffffffffffffffffffffffff1673ffffffffffffffffffffffffffffffffffffffff16815260200190815260200160002060006101000a81548160ff0219169083151502179055505050565b828054611f3e9061289c565b90600052602060002090601f016020900481019282611f605760008555611fa7565b82601f10611f7957805160ff1916838001178555611fa7565b82800160010185558215611fa7579182015b82811115611fa6578251825591602001919060010190611f8b565b5b509050611fb49190611fb8565b5090565b5b80821115611fd1576000816000905550600101611fb9565b5090565b6000611fe8611fe384612705565b6126d4565b90508281526020810184848401111561200057600080fd5b61200b84828561285a565b509392505050565b600081359050612022816129af565b92915050565b600082601f83011261203957600080fd5b8135612049848260208601611fd5565b91505092915050565b600081359050612061816129c6565b92915050565b60006020828403121561207957600080fd5b600061208784828501612013565b91505092915050565b6000602082840312156120a257600080fd5b60006120b084828501612052565b91505092915050565b600080600080608085870312156120cf57600080fd5b60006120dd87828801612052565b94505060206120ee87828801612013565b935050604085013567ffffffffffffffff81111561210b57600080fd5b61211787828801612028565b925050606085013567ffffffffffffffff81111561213457600080fd5b61214087828801612028565b91505092959194509250565b6000806040838503121561215f57600080fd5b600061216d85828601612052565b925050602061217e85828601612052565b9150509250929050565b612191816127ed565b82525050565b6121a0816127db565b82525050565b6121af816127ff565b82525050565b6121be81612848565b82525050565b60006121cf82612735565b6121d98185612740565b93506121e9818560208601612869565b6121f28161298a565b840191505092915050565b600061220a602883612740565b91507f5468652063616c6c6572206973206e6f7420746865206f776e6572206f62207460008301527f68652070696563650000000000000000000000000000000000000000000000006020830152604082019050919050565b6000612270602083612740565b91507f546865206974656d206973206e6f7420696e20737461746520466f7253616c656000830152602082019050919050565b60006122b0602083612740565b91507f546865206974656d206973206e6f7420696e20737461746520536869707065646000830152602082019050919050565b60006122f0602183612740565b91507f546865206974656d206973206e6f7420696e207374617465205265636569766560008301527f64000000000000000000000000000000000000000000000000000000000000006020830152604082019050919050565b6000612356602883612740565b91507f5468652063616c6c6572206973206e6f7420616e20617574686f72697a65642060008301527f776f726b73686f700000000000000000000000000000000000000000000000006020830152604082019050919050565b60006123bc601f83612740565b91507f546865206974656d206973206e6f7420696e2073746174652053746f726564006000830152602082019050919050565b60006123fc602083612740565b91507f546865206974656d206973206e6f7420696e20737461746520437265617465646000830152602082019050919050565b600061243c602883612740565b91507f5468652063616c6c6572206973206e6f7420616e20617574686f72697a65642060008301527f72657461696c65720000000000000000000000000000000000000000000000006020830152604082019050919050565b61249e8161283e565b82525050565b60006020820190506124b96000830184612197565b92915050565b60006020820190506124d460008301846121a6565b92915050565b600060208201905081810360008301526124f3816121fd565b9050919050565b6000602082019050818103600083015261251381612263565b9050919050565b60006020820190508181036000830152612533816122a3565b9050919050565b60006020820190508181036000830152612553816122e3565b9050919050565b6000602082019050818103600083015261257381612349565b9050919050565b60006020820190508181036000830152612593816123af565b9050919050565b600060208201905081810360008301526125b3816123ef565b9050919050565b600060208201905081810360008301526125d38161242f565b9050919050565b60006020820190506125ef6000830184612495565b92915050565b600060a08201905061260a6000830188612495565b6126176020830187612495565b6126246040830186612197565b6126316060830185612188565b818103608083015261264381846121c4565b90509695505050505050565b600061010082019050612665600083018b612495565b612672602083018a612495565b61267f6040830189612495565b818103606083015261269181886121c4565b90506126a06080830187612495565b6126ad60a08301866121b5565b6126ba60c0830185612197565b6126c760e0830184612197565b9998505050505050505050565b6000604051905081810181811067ffffffffffffffff821117156126fb576126fa61295b565b5b8060405250919050565b600067ffffffffffffffff8211156127205761271f61295b565b5b601f19601f8301169050602081019050919050565b600081519050919050565b600082825260208201905092915050565b600061275c8261283e565b91506127678361283e565b9250827fffffffffffffffffffffffffffffffffffffffffffffffffffffffffffffffff0382111561279c5761279b6128ce565b5b828201905092915050565b60006127b28261283e565b91506127bd8361283e565b9250828210156127d0576127cf6128ce565b5b828203905092915050565b60006127e68261281e565b9050919050565b60006127f88261281e565b9050919050565b60008115159050919050565b60008190506128198261299b565b919050565b600073ffffffffffffffffffffffffffffffffffffffff82169050919050565b6000819050919050565b60006128538261280b565b9050919050565b82818337600083830152505050565b60005b8381101561288757808201518184015260208101905061286c565b83811115612896576000848401525b50505050565b600060028204905060018216806128b457607f821691505b602082108114156128c8576128c761292c565b5b50919050565b7f4e487b7100000000000000000000000000000000000000000000000000000000600052601160045260246000fd5b7f4e487b7100000000000000000000000000000000000000000000000000000000600052602160045260246000fd5b7f4e487b7100000000000000000000000000000000000000000000000000000000600052602260045260246000fd5b7f4e487b7100000000000000000000000000000000000000000000000000000000600052604160045260246000fd5b6000601f19601f8301169050919050565b600681106129ac576129ab6128fd565b5b50565b6129b8816127db565b81146129c357600080fd5b50565b6129cf8161283e565b81146129da57600080fd5b5056fea26469706673582212205d3e0ef044c6c83937d0168881dab4d30b77c78ef90c24beaac18071dae8a4cb64736f6c63430008000033",
  "immutableReferences": {},
  "source": "pragma solidity >=0.4.24;\r\n\r\nimport \"../talaveracontrol/WorkshopRole.sol\";\r\nimport \"../talaveracontrol/RetailerRole.sol\";\r\nimport \"../talaveracontrol/CustomerRole.sol\";\r\nimport \"../talaveracore/Ownable.sol\";\r\n\r\n// Define a contract 'Supplychain'\r\n\r\ncontract SupplyChain is WorkshopRole, RetailerRole, CustomerRole, Ownable {\r\n\r\n  // Define '_owner'\r\n  address payable _owner;\r\n\r\n  // Define a variable called 'upc' for Universal Product Code (UPC)\r\n  uint upc;\r\n\r\n  // Define a variable called 'sku' for Stock Keeping Unit (SKU)\r\n  uint sku;\r\n\r\n  // Define a public mapping 'items' that maps the UPC to an Item.\r\n  mapping (uint => Item) items;\r\n\r\n  // Define a public mapping 'itemsHistory' that maps the UPC to an array of TxHash, \r\n  // that track its journey through the supply chain -- to be sent from DApp.\r\n  mapping (uint => string[]) itemsHistory;\r\n  \r\n  // Define enum 'State' with the following values:\r\n  enum State \r\n  { \r\n    Created,   // 0\r\n    Stored,    // 1\r\n    Shipped,   // 2\r\n    Received,  // 3\r\n    ForSale,   // 4\r\n    Sold       // 5\r\n  }\r\n\r\n  State constant defaultState = State.Created;\r\n\r\n  // Define a struct 'Item' with the following fields:\r\n  struct Item {\r\n    uint            sku;  // Stock Keeping Unit (SKU)\r\n    uint            upc; // Universal Product Code (UPC), generated by the workshop, goes on the package, can be verified by the Customer\r\n    address         ownerID;  // Metamask-Ethereum address of the current owner as the product moves through 8 stages\r\n    address payable originWorkshopID; // Metamask-Ethereum address of the Workshop\r\n    string          originWorkshopName; // Workshop Name\r\n    uint            productID;  // Product ID potentially a combination of upc + sku\r\n    string          productNotes; // Product Notes\r\n    uint            productPrice; // Product Price\r\n    State           itemState;  // Product State as represented in the enum above\r\n    address         retailerID; // Metamask-Ethereum address of the Retailer\r\n    address payable customerID; // Metamask-Ethereum address of the Customer\r\n  }\r\n\r\n  // Define 6 events with the same 6 state values and accept 'upc' as input argument\r\n  event Created(uint upc);\r\n  event Stored(uint upc);\r\n  event Shipped(uint upc);\r\n  event Received(uint upc);\r\n  event ForSale(uint upc);\r\n  event Sold(uint upc);\r\n\r\n  // Define a modifer that checks to see if msg.sender == owner of the contract\r\n  /*\r\n  modifier onlyOwner() {\r\n    require(msg.sender == _owner, \"The caller is not the owner of the contract\");\r\n    _;\r\n  }\r\n*/\r\n\r\n  // Define a modifer that verifies the Caller\r\n  modifier verifyCaller (address _address) {\r\n    require(msg.sender == _address, \"The caller is not the owner ob the piece\"); \r\n    _;\r\n  }\r\n\r\n  // Define a modifier that checks if the paid amount is sufficient to cover the price\r\n  modifier paidEnough(uint _price) { \r\n    require(msg.value >= _price); \r\n    _;\r\n  }\r\n  \r\n  // Define a modifier that checks the price and refunds the remaining balance\r\n  modifier checkValue(uint _upc) {\r\n    _;\r\n    uint _price = items[_upc].productPrice;\r\n    uint amountToReturn = msg.value - _price;\r\n    items[_upc].customerID.transfer(amountToReturn);\r\n  }\r\n\r\n  // Define a modifier that checks if an item.state of a upc is Created\r\n  modifier created(uint _upc) {\r\n    require(items[_upc].itemState == State.Created, \"The item is not in state Created\");\r\n    _;\r\n  }\r\n\r\n  // Define a modifier that checks if an item.state of a upc is Stored\r\n  modifier stored(uint _upc) {\r\n    require(items[_upc].itemState == State.Stored, \"The item is not in state Stored\");\r\n    _;\r\n  }\r\n  \r\n  // Define a modifier that checks if an item.state of a upc is Shipped\r\n  modifier shipped(uint _upc) {\r\n    require(items[_upc].itemState == State.Shipped, \"The item is not in state Shipped\");\r\n    _;\r\n  }\r\n\r\n  // Define a modifier that checks if an item.state of a upc is Received\r\n  modifier received(uint _upc) {\r\n    require(items[_upc].itemState == State.Received, \"The item is not in state Received\");\r\n    _;\r\n  }\r\n\r\n  // Define a modifier that checks if an item.state of a upc is PutToSale\r\n  modifier putToSale(uint _upc) {\r\n    require(items[_upc].itemState == State.ForSale, \"The item is not in state ForSale\");\r\n    _;\r\n  }\r\n\r\n  // Define a modifier that checks if an item.state of a upc is Sold\r\n  modifier sold(uint _upc) {\r\n    require(items[_upc].itemState == State.Sold, \"The item is not in state Sold\");\r\n    _;\r\n  }\r\n\r\n  // In the constructor set 'owner' to the address that instantiated the contract\r\n  // and set 'sku' to 1\r\n  // and set 'upc' to 1\r\n  constructor() public payable {\r\n    _owner = payable(msg.sender);\r\n    sku = 1;\r\n    upc = 1;\r\n  }\r\n\r\n  // Define a function 'kill' if required\r\n  function kill() public {\r\n    if (msg.sender == _owner) {\r\n      selfdestruct(_owner);\r\n    }\r\n  }\r\n\r\n  // Define a function 'createItem' that allows a workshop to mark an item 'Created'\r\n  function createItem(uint _upc, address _originWorkshopID, string memory _originWorkshopName, string memory _productNotes) public onlyWorkshop()\r\n  {\r\n    // Add the new item as part of Create\r\n    Item storage newItem = items[_upc];\r\n    newItem.sku = sku;\r\n    newItem.upc = _upc;\r\n    newItem.ownerID = _originWorkshopID;\r\n    newItem.originWorkshopID = payable(_originWorkshopID);\r\n    newItem.originWorkshopName = _originWorkshopName;\r\n    newItem.productID = sku + _upc;\r\n    newItem.productNotes = _productNotes;\r\n    newItem.itemState = defaultState;\r\n\r\n    // Increment sku\r\n    sku = sku + 1;\r\n\r\n    // Emit the appropriate event\r\n    emit Created(_upc);\r\n  }\r\n\r\n  // Define a function 'storeItem' that allows a workshop to mark an item 'Stored'\r\n  function storeItem(uint _upc) public \r\n  // Call modifier to check if upc has passed previous supply chain stage\r\n  created(_upc)\r\n  // Call modifier to verify caller of this function\r\n  verifyCaller(items[_upc].ownerID)\r\n  onlyWorkshop()\r\n  {\r\n    // Update the appropriate fields\r\n    items[_upc].itemState = State.Stored;\r\n    // Emit the appropriate event\r\n    emit Stored(_upc);\r\n  }\r\n\r\n  // Define a function 'shipItem' that allows the workshop to mark an item 'Shipped'\r\n  // Use the above modifers to check if the item is stored\r\n  function shipItem(uint _upc) public \r\n    // Call modifier to check if upc has passed previous supply chain stage\r\n    stored(_upc)\r\n    // Call modifier to verify caller of this function\r\n    verifyCaller(items[_upc].ownerID)\r\n    onlyWorkshop()\r\n    {\r\n    // Update the appropriate fields\r\n    items[_upc].itemState = State.Shipped;\r\n    // Emit the appropriate event\r\n    emit Shipped(_upc);\r\n  }\r\n\r\n  // Define a function 'receiveItem' that allows the retailer to mark an item 'Received'\r\n  // Use the above modifiers to check if the item is shipped\r\n  function receiveItem(uint _upc) public \r\n    // Call modifier to check if upc has passed previous supply chain stage\r\n    shipped(_upc)\r\n    // Access Control List enforced by calling Smart Contract / DApp\r\n    onlyRetailer()\r\n    {\r\n    // Update the appropriate fields - ownerID, retailerID, itemState\r\n    items[_upc].itemState = State.Received;\r\n    items[_upc].ownerID = msg.sender;\r\n    items[_upc].retailerID = msg.sender;\r\n\r\n    // Emit the appropriate event\r\n    emit Received(_upc);\r\n  }\r\n\r\n  // Define a function 'sellItem' that allows a workshop to mark an item 'ForSale'\r\n  function sellItem(uint _upc, uint _price) public \r\n  // Call modifier to check if upc has passed previous supply chain stage\r\n  received(_upc)\r\n  // Call modifier to verify caller of this function\r\n  verifyCaller(items[_upc].ownerID)\r\n  onlyRetailer()\r\n  {\r\n    // Update the appropriate fields\r\n    items[_upc].itemState = State.ForSale;\r\n    items[_upc].productPrice = _price;\r\n    \r\n    // Emit the appropriate event\r\n    emit ForSale(_upc);\r\n  }\r\n\r\n  // Define a function 'buyItem' that allows the customer to mark an item 'Sold'\r\n  // Use the above defined modifiers to check if the item is available for sale, if the buyer has paid enough, \r\n  // and any excess ether sent is refunded back to the buyer\r\n  function buyItem(uint _upc) public payable \r\n    // Call modifier to check if upc has passed previous supply chain stage\r\n    putToSale(_upc)\r\n    // Call modifer to check if buyer has paid enough\r\n    paidEnough(msg.value)\r\n    // Call modifer to send any excess ether back to buyer\r\n    // checkValue(_upc)\r\n    onlyCustomer()\r\n    {\r\n    \r\n    // Update the appropriate fields - ownerID, itemState\r\n    items[_upc].ownerID = msg.sender;\r\n    items[_upc].itemState = State.Sold;\r\n    items[_upc].customerID = payable(msg.sender);\r\n\r\n    // Transfer money to workshop\r\n    items[_upc].originWorkshopID.transfer(items[_upc].productPrice);\r\n\r\n    // send any excess ether back to buyer\r\n    uint _price = items[_upc].productPrice;\r\n    uint amountToReturn = msg.value - _price;\r\n    items[_upc].customerID.transfer(amountToReturn);\r\n\r\n    // emit the appropriate event\r\n    emit Sold(_upc);\r\n  }\r\n\r\n  // Define a function 'fetchItemBufferOne' that fetches the data\r\n  function fetchItemBufferOne(uint _upc) public view returns \r\n  (\r\n  uint    itemSKU,\r\n  uint    itemUPC,\r\n  address ownerID,\r\n  address payable originWorkshopID,\r\n  string memory   originWorkshopName\r\n  ) \r\n  {\r\n  // Assign values to the 8 parameters\r\n  itemSKU = items[_upc].sku;\r\n  itemUPC = items[_upc].upc;\r\n  ownerID = items[_upc].ownerID;\r\n  originWorkshopID = items[_upc].originWorkshopID;\r\n  originWorkshopName = items[_upc].originWorkshopName;\r\n  return \r\n  (\r\n  itemSKU,\r\n  itemUPC,\r\n  ownerID,\r\n  originWorkshopID,\r\n  originWorkshopName\r\n  );\r\n  }\r\n\r\n  // Define a function 'fetchItemBufferTwo' that fetches the data\r\n  function fetchItemBufferTwo(uint _upc) public view returns \r\n  (\r\n  uint    itemSKU,\r\n  uint    itemUPC,\r\n  uint    productID,\r\n  string memory productNotes,\r\n  uint    productPrice,\r\n  State   itemState,\r\n  address retailerID,\r\n  address customerID\r\n  ) \r\n  {\r\n    // Assign values to the 9 parameters\r\n  itemSKU = items[_upc].sku;\r\n  itemUPC = items[_upc].upc;\r\n  productID = items[_upc].productID;\r\n  productNotes = items[_upc].productNotes;\r\n  productPrice = items[_upc].productPrice;\r\n  itemState = items[_upc].itemState;\r\n  retailerID = items[_upc].retailerID;\r\n  customerID = items[_upc].customerID;  \r\n  return \r\n  (\r\n  itemSKU,\r\n  itemUPC,\r\n  productID,\r\n  productNotes,\r\n  productPrice,\r\n  itemState,\r\n  retailerID,\r\n  customerID\r\n  );\r\n  }\r\n}\r\n",
  "sourcePath": "E:\\Blockchain\\Supply Chain\\SupplyChainProject\\contracts\\talaverabase\\SupplyChain.sol",
  "compiler": {
    "name": "solc",
    "version": "0.8.0+commit.c7dfd78e.Emscripten.clang"
  },
  "schemaVersion": "3.4.5",
  "updatedAt": "2022-05-16T07:51:31.938Z",
  "devdoc": {
    "kind": "dev",
    "methods": {},
    "version": 1
  },
  "userdoc": {
    "kind": "user",
    "methods": {
      "isOwner()": {
        "notice": "Check if the calling address is the owner of the contract"
      },
      "owner()": {
        "notice": "Look up the address of the owner"
      },
      "renounceOwnership()": {
        "notice": "Define a function to renounce ownerhip"
      },
      "transferOwnership(address)": {
        "notice": "Define a public function to transfer ownership"
      }
    },
    "version": 1
  }
}