{
  "contractName": "WorkshopRole",
  "abi": [
    {
      "inputs": [],
      "stateMutability": "nonpayable",
      "type": "constructor"
    },
    {
      "anonymous": false,
      "inputs": [
        {
          "indexed": true,
          "internalType": "address",
          "name": "account",
          "type": "address"
        }
      ],
      "name": "WorkshopAdded",
      "type": "event"
    },
    {
      "anonymous": false,
      "inputs": [
        {
          "indexed": true,
          "internalType": "address",
          "name": "account",
          "type": "address"
        }
      ],
      "name": "WorkshopRemoved",
      "type": "event"
    },
    {
      "inputs": [
        {
          "internalType": "address",
          "name": "account",
          "type": "address"
        }
      ],
      "name": "isWorkshop",
      "outputs": [
        {
          "internalType": "bool",
          "name": "",
          "type": "bool"
        }
      ],
      "stateMutability": "view",
      "type": "function"
    },
    {
      "inputs": [
        {
          "internalType": "address",
          "name": "account",
          "type": "address"
        }
      ],
      "name": "addWorkshop",
      "outputs": [],
      "stateMutability": "nonpayable",
      "type": "function"
    },
    {
      "inputs": [],
      "name": "renounceWorkshop",
      "outputs": [],
      "stateMutability": "nonpayable",
      "type": "function"
    }
  ],
  "bytecode": "0x608060405234801561001057600080fd5b506100203361002560201b60201c565b6101c7565b61003d81600061008360201b6101181790919060201c565b8073ffffffffffffffffffffffffffffffffffffffff167fedc03018a1a8d62183da42aeb3e5762205741e372f7c95d60259348e28e2109d60405160405180910390a250565b600073ffffffffffffffffffffffffffffffffffffffff168173ffffffffffffffffffffffffffffffffffffffff1614156100bd57600080fd5b6100cd828261013560201b60201c565b156100d757600080fd5b60018260000160008373ffffffffffffffffffffffffffffffffffffffff1673ffffffffffffffffffffffffffffffffffffffff16815260200190815260200160002060006101000a81548160ff0219169083151502179055505050565b60008073ffffffffffffffffffffffffffffffffffffffff168273ffffffffffffffffffffffffffffffffffffffff16141561017057600080fd5b8260000160008373ffffffffffffffffffffffffffffffffffffffff1673ffffffffffffffffffffffffffffffffffffffff16815260200190815260200160002060009054906101000a900460ff16905092915050565b61053f806101d66000396000f3fe608060405234801561001057600080fd5b50600436106100415760003560e01c80631e2ebe83146100465780636529ea8514610076578063a228ea3814610080575b600080fd5b610060600480360381019061005b91906103ca565b61009c565b60405161006d9190610468565b60405180910390f35b61007e6100b9565b005b61009a600480360381019061009591906103ca565b6100c4565b005b60006100b28260006101c490919063ffffffff16565b9050919050565b6100c233610256565b565b6100cd3361009c565b61010c576040517f08c379a000000000000000000000000000000000000000000000000000000000815260040161010390610483565b60405180910390fd5b610115816102b0565b50565b600073ffffffffffffffffffffffffffffffffffffffff168173ffffffffffffffffffffffffffffffffffffffff16141561015257600080fd5b61015c82826101c4565b1561016657600080fd5b60018260000160008373ffffffffffffffffffffffffffffffffffffffff1673ffffffffffffffffffffffffffffffffffffffff16815260200190815260200160002060006101000a81548160ff0219169083151502179055505050565b60008073ffffffffffffffffffffffffffffffffffffffff168273ffffffffffffffffffffffffffffffffffffffff1614156101ff57600080fd5b8260000160008373ffffffffffffffffffffffffffffffffffffffff1673ffffffffffffffffffffffffffffffffffffffff16815260200190815260200160002060009054906101000a900460ff16905092915050565b61026a81600061030a90919063ffffffff16565b8073ffffffffffffffffffffffffffffffffffffffff167f7b730fd5e1824b7084e3e0b56f4b60c07d3862f6198954123d1363163c1da1dd60405160405180910390a250565b6102c481600061011890919063ffffffff16565b8073ffffffffffffffffffffffffffffffffffffffff167fedc03018a1a8d62183da42aeb3e5762205741e372f7c95d60259348e28e2109d60405160405180910390a250565b600073ffffffffffffffffffffffffffffffffffffffff168173ffffffffffffffffffffffffffffffffffffffff16141561034457600080fd5b61034e82826101c4565b61035757600080fd5b60008260000160008373ffffffffffffffffffffffffffffffffffffffff1673ffffffffffffffffffffffffffffffffffffffff16815260200190815260200160002060006101000a81548160ff0219169083151502179055505050565b6000813590506103c4816104f2565b92915050565b6000602082840312156103dc57600080fd5b60006103ea848285016103b5565b91505092915050565b6103fc816104c6565b82525050565b600061040f6028836104a3565b91507f5468652063616c6c6572206973206e6f7420616e20617574686f72697a65642060008301527f776f726b73686f700000000000000000000000000000000000000000000000006020830152604082019050919050565b600060208201905061047d60008301846103f3565b92915050565b6000602082019050818103600083015261049c81610402565b9050919050565b600082825260208201905092915050565b60006104bf826104d2565b9050919050565b60008115159050919050565b600073ffffffffffffffffffffffffffffffffffffffff82169050919050565b6104fb816104b4565b811461050657600080fd5b5056fea26469706673582212203135dbc482de0578eb4fb72f7e329f20c012b6663f21e5f7b2e2a0df7615659864736f6c63430008000033",
  "immutableReferences": {},
  "source": "pragma solidity >=0.4.24;\r\n\r\n// Import the library 'Roles'\r\nimport \"./Roles.sol\";\r\n\r\n// Define a contract 'WorkshopRole' to manage this role - add, remove, check\r\ncontract WorkshopRole {\r\n  using Roles for Roles.Role;\r\n\r\n  // Define 2 events, one for Adding, and other for Removing\r\n  event WorkshopAdded(address indexed account);\r\n  event WorkshopRemoved(address indexed account);\r\n\r\n  // Define a struct 'workshops' by inheriting from 'Roles' library, struct Role\r\n  Roles.Role private workshops;\r\n\r\n  // In the constructor make the address that deploys this contract the 1st workshop\r\n  constructor() public {\r\n    _addWorkshop(msg.sender);\r\n  }\r\n\r\n  // Define a modifier that checks to see if msg.sender has the appropriate role\r\n  modifier onlyWorkshop() {\r\n    require(isWorkshop(msg.sender), \"The caller is not an authorized workshop\");\r\n    _;\r\n  }\r\n\r\n  // Define a function 'isWorkshop' to check this role\r\n  function isWorkshop(address account) public view returns (bool) {\r\n    return workshops.has(account);\r\n  }\r\n\r\n  // Define a function 'addWorkshop' that adds this role\r\n  function addWorkshop(address account) public onlyWorkshop {\r\n    _addWorkshop(account);\r\n  }\r\n\r\n  // Define a function 'renounceWorkshop' to renounce this role\r\n  function renounceWorkshop() public {\r\n    _removeWorkshop(msg.sender);\r\n  }\r\n\r\n  // Define an internal function '_addWorkshop' to add this role, called by 'addWorkshop'\r\n  function _addWorkshop(address account) internal {\r\n    workshops.add(account);\r\n    emit WorkshopAdded(account);\r\n  }\r\n\r\n  // Define an internal function '_removeWorkshop' to remove this role, called by 'removeWorkshop'\r\n  function _removeWorkshop(address account) internal {\r\n    workshops.remove(account);\r\n    emit WorkshopRemoved(account);\r\n  }\r\n}",
  "sourcePath": "E:\\Blockchain\\Supply Chain\\SupplyChainProject\\contracts\\talaveracontrol\\WorkshopRole.sol",
  "compiler": {
    "name": "solc",
    "version": "0.8.0+commit.c7dfd78e.Emscripten.clang"
  },
  "schemaVersion": "3.4.5",
  "updatedAt": "2022-05-16T07:51:32.040Z",
  "devdoc": {
    "kind": "dev",
    "methods": {},
    "version": 1
  },
  "userdoc": {
    "kind": "user",
    "methods": {},
    "version": 1
  }
}